:100000000C9462040C94AB040C94AB040C94AB04FD
:100010000C94AB040C94AB040C94AB040C94AB04A4
:100020000C94AB040C94AB040C94321F0C94092078
:100030000C943C160C94AB040C94AB040C94AB04E1
:100040000C94AB040C94AB040C94AB040C94AB0474
:100050000C94AB040C949D160C94AB040C94AB0460
:100060000C94AB040C94AB040C94AB040C94AB0454
:100070000C94AB040C94AB040C94AB040C94AB0444
:100080000C94AB040C94AB040C94AB040C94AB0434
:100090000C94AB040C94AB04290014001A00090062
:1000A000130005000D000F0018001C0033002A008B
:1000B0004C00E00004001500160017000A001000B4
:1000C000110008000C00000012003400E1001D00C7
:1000D0001B000600070019000E000B003600370059
:1000E00000003800E500E300E200001400002C00EE
:1000F00000000151000002510353000028000000DD
:100100003500310235022F0030002F024A004B002B
:100110004E004D00A600010001000100360237022A
:100120002E022D002E005000510052004F00000002
:10013000AE002B000100220220022602270230021C
:10014000AC00A900AA00AB000000A800010001005B
:10015000010001000000010000000100000001009A
:10016000010000000100000001001E021F02200229
:10017000210222022302240225024400440001003D
:10018000010001001E001F002000210022002300AA
:1001900024002500260000002700010001003A008D
:1001A0003B003C003D003E003F00400001000100DC
:1001B00000004300010001000100010000000100F7
:1001C000000001000000010001000000010000002B
:1001D000010053005F006000610055003A003B00E1
:1001E0003C003D003E0049000070390063005C00A7
:1001F0005D005E0057003F004000410042000000EB
:10020000430001000100540059005A005B005600F1
:10021000440045006800690000006A000100010018
:100220000100620000000100000001000000010068
:1002300001000000010000000100010001000100B8
:1002400001000100010001000100010001000100A6
:100250000100010001000100010001000100010096
:100260000100010001000000010001000100010087
:100270000100010001000100010001000100010076
:100280000000010001000100010001000000010068
:10029000000001000000010001000000010000005A
:1002A0000100010001000100010001000100010046
:1002B0000100010001000100010001000100010036
:1002C0000100010001000100010001000100000027
:1002D0000100010001000100010001000100010016
:1002E0000100010001000100000001000100010007
:1002F00001000100000001000000010000000100F9
:1003000001000000010000000100010001000100E7
:1003100001000100010001000100010001000100D5
:1003200001000100010001000100010001000100C5
:1003300001000100010000000100010001000100B6
:1003400001000100010001000100010001000100A5
:100350000000010001000100010001000000010097
:100360000000010000000100010000000100000089
:100370000100010001000100010001000100010075
:100380000100010001000100010001000100010065
:100390000100010001000100010001000100000056
:1003A0000100010001000100010001000100010045
:1003B0000100010001000100000001000100010036
:1003C0000100010000000100000001000000010028
:1003D0000100000001000000010001000100010017
:1003E0000100010001000100010001000100010005
:1003F00001000100010001000100010001000100F5
:1004000001000100010000000100010001000100E5
:1004100001000100010001000100010001000100D4
:1004200000000100010001000100010000000100C6
:1004300000000100000001000100000001000000B8
:1004400001000100010001000100010001000100A4
:100450000100010001000100010001000100010094
:100460000100010001000100010001000100000085
:100470000100010001000100010001000100010074
:100480000100010001000100000001000100010065
:100490000100010000000100000001000000010057
:1004A0000100000001000000010001000100010046
:1004B0000100010001000100010001000100010034
:1004C0000100010001000100010001000100010024
:1004D0000100010001000000010001000100010015
:1004E0000100010001000100010001000100010004
:1004F00000000100010001000100010000000100F6
:1005000000000100000001000100000001000000E7
:1005100001000100010001000100010001000100D3
:1005200001000100010001000100010001000100C3
:1005300001000100010001000100010001000000B4
:1005400001000100010001000100010001000100A3
:100550000100010001000100000001000100010094
:100560000100010000000100000001000000010086
:100570000100000001000000010001000100010075
:100580000100010001000100010001000100010063
:100590000100010001000100010001000100010053
:1005A0000100010001000000010001000100010044
:1005B0000100010001000100010001000100010033
:1005C0000000010001000100010001000000010025
:1005D0000000010000000100010000000100000017
:1005E0000100010001000100010001000100010003
:1005F00001000100010001000100010001000100F3
:1006000001000100010001000100010001000000E3
:1006100001000100010001000100010001000100D2
:1006200001000100010001000000010001000100C3
:1006300001000100000001000000010000000100B5
:1006400001000000010000000100010001000100A4
:100650000100010001000100010001000100010092
:100660000100010001000100010001000100010082
:100670000100010001000000010001000100010073
:100680000100010001000100010001000100010062
:100690000000010001000100010001000000010054
:1006A0000000010000000100010000000100000046
:1006B0000100010001000100010001000100010032
:1006C0000100010001000100010001000100010022
:1006D0000100010001000100010001000100000013
:1006E0000100010001000100010001000100010002
:1006F00001000100010001000000010001000100F3
:1007000001000100000001000000010000000100E4
:10071000010000000100000012036B006500790079
:1007200062006F0061007200640000001603710037
:100730006D006B006200750069006C00640065006C
:10074000720000000403090409026D00040100A006
:10075000FA0904000001030101000921110100014F
:100760002240000705810308000A09040100010373
:10077000010200092111010001224D000705820339
:1007800008000A0904020001030000000921110108
:1007900000012236000705830308000A090403004C
:1007A00001030000000921110100012239000705A1
:1007B00084032000011201100100000008EDFE601A
:1007C0006001000102000105010906A101050719E8
:1007D000E029E71500250195087501810205081932
:1007E0000129059505750191029501750391010592
:1007F00007190029F71500250195F875018102C038
:1008000005010980A10185021601002603001A8155
:10081000002A8300751095018100C0050C0901A113
:10082000018503160100269C021A01002A9C02750C
:100830001095018100C005010902A1010901A10073
:100840000509190129051500250195057501810284
:100850009501750381010501093009311581257F55
:1008600095027508810609381581257F950175085F
:100870008106050C0A38021581257F9501750881CE
:1008800006C0C005010906A101050719E029E71501
:100890000025019508750181029501750881010502
:1008A00008190129059505750191029501750391B6
:1008B000010507190029FF150026FF009506750898
:1008C0008100C00011241FBECFEFD0E2DEBFCDBF3C
:1008D00004B603FE27C08091350290913602A091A4
:1008E0003702B09138028730904BA740B04BD1F41B
:1008F000109235021092360210923702109238028E
:1009000014BE84B7877F84BF0FB6F894A8958091F2
:100910006000886180936000109260000FBEE0E08C
:10092000FCEF099511E0A0E0B1E0EAEFF6E400E0A9
:100930000BBF02C007900D92A833B107D9F722E090
:10094000A8E3B1E001C01D92A533B207E1F70E9410
:10095000851C0C944F230C94000090E080E00895D7
:100960000895089581E00895089581E008950C9414
:10097000B2040E948D0E2FEF84E39CE02150804052
:100980009040E1F700C000000C94C016EF92FF9277
:100990000F931F93CF93DF938C01FC01E080F180D4
:1009A00080916C01811140C082818823C1F1C7010F
:1009B0000E941214C82F682FC7010E94BB13B701F1
:1009C0008C2F0E94FE05EC01B8010E94B704882319
:1009D00009F44BC0B801CE010E940708882309F42E
:1009E00044C0C531F0E7DF0720F5C23080E7D80703
:1009F00008F04DC0C115E0E7DE0791F1C130D047E6
:100A0000E1F181E080933A0180933B01C801DF91DD
:100A1000CF911F910F91FF90EF900C94B504C701F7
:100A20000E94E913C82FCBCFC7010E941214B7014F
:100A3000C8CFCC3380E7D80709F49BC0CD33D0476B
:100A400001F7F8018281882309F4BAC010923B01B2
:100A50000E946C16909339018093380180E296C011
:100A6000F801828181110E94B90480E0DF91CF9169
:100A70001F910F91FF90EF900895F80182818823D4
:100A8000A1F38091F50181608093F501EECFF8012B
:100A90008281882309F4BACF0E94CD15811102C04A
:100AA0000E94B3150E94EA1590E09093270280936C
:100AB0002602FE01E350F047809126028160E23178
:100AC000F10538F4EF5AFC4D0C94FC22809126027B
:100AD000826080932602809126020E94EE150E9479
:100AE0008D0EC3CF809126028460F3CF80912602C1
:100AF0008860EFCF809126028061EBCF8091260243
:100B00008062E7CF809126028064E3CF8091260245
:100B10008068DFCF809126028C60DBCF8091260237
:100B20008E7FD7CF809126028D7FD3CF80912602F2
:100B30008B7FCFCF80912602877FCBCF80912602FB
:100B40008F7EC7CF809126028F7DC3CF80912602F2
:100B50008F7BBFCF809126028F77BBCF80912602FB
:100B6000837FB7CF90912602892F97FB87F9805812
:100B7000B0CFF8018281882361F010923A010E947F
:100B80006C16909339018093380182E00E94F20B39
:100B90006CCF80913A0181110FC080913801909102
:100BA00039010E947816883C910530F486E20E9453
:100BB000C70A86E20E94A30B82E00E94F90B55CF80
:100BC00080913B0181110FC08091380190913901D2
:100BD0000E947816883C910530F487E20E94C70A8B
:100BE00087E20E94A30B80E2E8CF0C9456080C9495
:100BF00058080C94B4040C94F9050895972F70E0EC
:100C00002DE0929F600D711D1124FB0194E3899FDB
:100C1000E00DF11D1124EE0FFF1FE856FF4F8591E7
:100C200094910895FC01EE0FFF1FE85EF84F859147
:100C3000949108950E94FE050E948B079C018115E6
:100C400040E4940708F097C0211580E3380708F0C6
:100C5000FAC0203E310508F074C0203C310508F090
:100C6000E5C0283A310588F4253A310508F0E2C09C
:100C70002130310509F477C0C9010497813A910503
:100C800008F471C030E020E06EC0C901885A9109B3
:100C90004597C0F7283A310509F4FEC0293A3105D5
:100CA00009F4FDC02A3A310509F4FCC02B3A31059C
:100CB00009F4FBC02C3A310509F4FAC02B3B31058D
:100CC00009F4F9C02C3B310509F4F8C02D3A31057F
:100CD00009F4F7C0203B310509F4F6C02E3A31057E
:100CE00009F4F5C02F3A310509F4F4C0213B310570
:100CF00009F4F3C0223B310509F4F2C0233B31056E
:100D000009F4F1C0243B310509F4F0C0253B31055D
:100D100009F4EFC0263B310509F4EEC0273B31054D
:100D200009F4EDC0283B310509F4ECC0293B31053D
:100D300009F4EBC02A3B310509F4EAC020E034E4B1
:100D400012C0211590E2390780F42F3F310509F0D8
:100D500050F4283E310538F0C901805F91093065B3
:100D6000409708F08FCFC9010895C9019F700E9474
:100D700012069C01F8CF8115944508F041C0211559
:100D800083E5380708F06AC0211592E5390738F580
:100D9000211541E5340708F05CC0211580E53807CE
:100DA00008F454C0C90134E0969587953A95E1F767
:100DB0008370422F46954695437090E2499FA0016B
:100DC0001124582B822F837021E030E002C0220FC3
:100DD000331F8A95E2F7242B352B3C68C4CFC90119
:100DE0008370992741E050E002C0440F551F8A9557
:100DF000E2F72695269580E2289F90011124EBCFFB
:100E0000211596E5390748F4922F88272115354595
:100E1000C8F59C01246F306AA6CFC90190563F7077
:100E20008115904108F02ECF30629DCFC901805CC2
:100E300091099DCF253A310549F1263A310549F509
:100E400022E830E490CF3327306C8DCF3F70306A8A
:100E50008ACF322F2227216F306A85CFC901837054
:100E6000992741E050E002C0440F551F8A95E2F7F0
:100E70002695269580E2289F90011124242B352B5E
:100E80003A6871CF88279F719C01CECF21E830E46A
:100E90006ACF23E830E467CF22EE34E464CF29EE52
:100EA00034E461CF2AEE34E45ECF25EB34E45BCF4B
:100EB00026EB34E458CF23EB34E455CF24EB34E471
:100EC00052CF27EB34E44FCF2CEC34E44CCF2DEC55
:100ED00034E449CF23E835E446CF2AE835E443CF6C
:100EE00022E935E440CF24E935E43DCF21E236E480
:100EF0003ACF23E236E437CF24E236E434CF25E29A
:100F000036E431CF26E236E42ECF27E236E42BCF8B
:100F10002AE236E428CF803E910581F1C8F481337E
:100F2000910509F462C048F48932910509F456C06C
:100F30008A32910509F460C0089589339105B9F0AA
:100F400082389105A1F08533910509F440C00895D8
:100F5000863E910561F138F4823E9105B1F0833E01
:100F60009105E1F00895873E910551F10895209192
:100F700026022370D9F080EE90E008952091260299
:100F800020FF14C089E390E008952091260222FFFB
:100F90000DC024FD09C083EE90E008952091260243
:100FA00022FD31C024FF02C090E080E0089520912E
:100FB000260223FFFBCF24FDF7CF87EE90E00895B4
:100FC0002091260223FFEECF86EE90E00895209137
:100FD000260225FFEBCF89E290E0089520912602BA
:100FE00025FFE4CF85E390E008952091260226FFB7
:100FF000DDCF8AE290E008952091260226FFD6CF29
:1010000081E390E0089582EE90E0089508950F93B3
:101010001F93CF938C01FB018281811106C0C1E037
:101020008C2FCF911F910F910895C0914901C1114B
:1010300025C00531104799F70E94060881E080938A
:1010400049010E946C1690934801809347011092C9
:101050003C0110923E0110923D011092400110920D
:101060003F011092420110924101109244011092EE
:1010700043011092460110924501D2CF8091470161
:10108000909148010E947816883C910540F6809125
:101090003C01E82FF0E0EE0FFF1FE35CFE4F1183F1
:1010A00000838F5F80933C01C0E0BACF0C94B00402
:1010B0000C94B104CF93DF9385B7806885BF85B763
:1010C000806885BFA0E2B1E044E251E0C1E0D0E039
:1010D0008D91E82FE295EF70F0E061A18F709E0195
:1010E00001C0220F8A95EAF7922F9095962391A33B
:1010F00082A1822B82A34A175B0751F7A3E1B1E0DB
:1011000040E251E0C1E0D0E08D91E82FE295EF7030
:10111000F0E061A18F709E0101C0220F8A95EAF76D
:10112000922F9095962391A382A1822B82A34A1796
:101130005B0751F7109253011092520110924B012C
:1011400010924A01109255011092540110924D01D3
:1011500010924C01109257011092560110924F01BB
:1011600010924E01109259011092580110925101A3
:1011700010925001DF91CF910C94F5054F925F9240
:101180007F928F929F92AF92BF92CF92DF92EF9217
:10119000FF920F931F93CF93DF939AE4492E91E030
:1011A000592E20E2E22E21E0F22E01E010E09924F7
:1011B0009394E201A990B9902E01DE011E921E9235
:1011C000F70181917F01E82FE295EF70F0E091A1A6
:1011D0008F70980101C0220F8A95EAF7892F822B20
:1011E00081A382A1822E8094882182A380EA8A959D
:1011F000F1F783E1C82E81E0D82E90E080E0E6018F
:1012000079916E01472F42954F7050E0EA0178A026
:101210004D915C9111977F70E80102C0CC0FDD1FEA
:101220007A95E2F7BE01672109F06AC0B801082E7D
:1012300002C0660F771F0A94E2F7462B572B1196D0
:101240005C934E9301968D309105C9F681A1882259
:1012500081A282A1282B22A38D919C91A816B90668
:1012600041F090925A010E946C1690935C01809319
:101270005B01D2E54D16D1E05D0609F09ACF809171
:101280005A01882351F180915B0190915C010E9489
:101290007816069710F180914A0190914B01909336
:1012A00053018093520180914C0190914D01909394
:1012B00055018093540180914E0190914F0190937C
:1012C0005701809356018091500190915101909364
:1012D00059018093580110925A010E94F70581E04C
:1012E000DF91CF911F910F91FF90EF90DF90CF9002
:1012F000BF90AF909F908F907F905F904F90089598
:1013000070E060E09ACFE82FF0E0EE0FFF1FEE5A9A
:10131000FE4F80819181089508959093620180939A
:1013200061010895E0916101F0916201309721F02F
:101330000190F081E02D099480E00895E091610131
:10134000F0916201309721F00280F381E02D099441
:101350000895E0916101F0916201309721F00480DD
:10136000F581E02D0994089520915F01309160018D
:101370002817390771F09093600180935F01E09125
:101380006101F0916201309721F00680F781E02D34
:101390000994089520915D0130915E012817390765
:1013A00071F090935E0180935D01E0916101F09195
:1013B0006201309721F00084F185E02D09940895B1
:1013C00008950C94E0090E9463160E945A080C9438
:1013D0002D175F926F927F928F929F92AF92BF92E2
:1013E000CF92DF92EF92FF920F931F93CF93DF93F1
:1013F00000D000D00F92CDB7DEB70E94BE0894E6B1
:10140000A92E91E0B92E10E000E088248394912C5D
:10141000502E802F0E9483097C01F501C190D1904C
:101420005F01C816D90609F45DC08091F50181FD00
:101430000E948C0990E080E0CE24DF243401082E45
:1014400002C0660C771C0A94E2F796012621372128
:10145000232B09F442C089835A82E620F72081E0D9
:10146000EF2809F480E08B830E946C168160782F4E
:101470009D838C8349815A816B818D810E949E0A54
:10148000000F111FF801EC59FE4F808191816826F1
:101490007926718260820E94DA190E9492099091E5
:1014A00063018917B1F10E949209809363010F9043
:1014B0000F900F900F900F90DF91CF911F910F9190
:1014C000FF90EF90DF90CF90BF90AF909F908F9064
:1014D0007F906F905F900C94FB0501968D30910585
:1014E00009F0ACCF0F5F1F4F0430110509F090CF0A
:1014F0008FEF89838A831B820E946C168160782F0C
:101500009D838C8349815A816B818D810E949E0AC3
:10151000C2CF0F900F900F900F900F90DF91CF914F
:101520001F910F91FF90EF90DF90CF90BF90AF9001
:101530009F908F907F906F905F900895CF93DF93EF
:10154000CDB7DEB72B970FB6F894DEBF0FBECDBF79
:101550004F83588769877A878B871E8285E0FE01D3
:101560003796DE01119601900D928A95E1F7498137
:101570005A816B817C818D819E812B960FB6F89468
:10158000DEBF0FBECDBFDF91CF910C941511882324
:1015900009F4D8C0823871F40E94920981FDD2C04A
:1015A00089E30E94BA140E94841589E30E94F7140B
:1015B0000C948415833859F40E94920980FDC2C0AE
:1015C00083E50E94BA140E94841583E5EFCF843826
:1015D00059F40E94920982FDB5C087E40E94BA14B2
:1015E0000E94841587E4E2CF9CEF980F913A18F49B
:1015F0000E94BA14DDCF90E2980F983050F48770B3
:1016000091E001C0990F8A95EAF7892F0E943B1556
:10161000CFCF9BE5980F933070F4853A31F0863A3E
:1016200039F083E890E00C94B40981E890E0FBCFB6
:1016300082E890E0F8CF98E5980F953108F082C0E5
:10164000883A09F440C0893A09F440C08A3A09F45A
:1016500040C08B3A09F440C08C3A09F440C08B3B3F
:1016600009F440C08C3B09F440C08D3A09F440C0F5
:10167000803B09F440C08E3A09F440C08F3A09F427
:1016800040C0813B09F440C0823B09F440C0833B29
:1016900009F440C0843B09F440C0853B09F440C0D4
:1016A000863B09F440C0873B09F440C0883B09F4FD
:1016B00040C0893B09F440C08A3B09F440C090E037
:1016C00080E00C94CA0982EE90E0FBCF89EE90E0B6
:1016D000F8CF8AEE90E0F5CF85EB90E0F2CF86EB85
:1016E00090E0EFCF83EB90E0ECCF84EB90E0E9CF9C
:1016F00087EB90E0E6CF8CEC90E0E3CF8DEC90E0D0
:10170000E0CF83E891E0DDCF8AE891E0DACF82E9AB
:1017100091E0D7CF84E991E0D4CF81E292E0D1CFBC
:1017200083E292E0CECF84E292E0CBCF85E292E0FA
:10173000C8CF86E292E0C5CF87E292E0C2CF8AE2CC
:1017400092E0BFCF0895882309F44BC0823871F42A
:101750000E94920981FF45C089E30E94BA140E9449
:10176000841589E30E94F7140C948415833859F486
:101770000E94920980FF35C083E50E94BA140E943E
:10178000841583E5EFCF843859F40E94920982FFD3
:1017900028C087E40E94BA140E94841587E4E2CF2F
:1017A0009CEF980F913AF0F290E2980F983050F435
:1017B000877091E001C0990F8A95EAF7892F0E94FE
:1017C0004115D2CF9BE5980F933020F490E080E054
:1017D0000C94B409885A853120F490E080E00C9490
:1017E000CA090895882321F00E943B150C948415A2
:1017F0000895882321F00E9441150C9484150895C2
:101800008F929F92AF92BF92DF92EF92FF920F93CF
:101810001F93CF93DF9300D000D00F92CDB7DEB7E8
:101820007C016D837983FC01058102950F70128123
:1018300011110E945A150E94B314D82E882371F0FA
:101840001123A1F08D81805E883080F082E00E94BB
:101850009D140E94B31491E0D82ED926E981E29517
:10186000EF70F0E0ED59FC4D0C94FC22D12CF6CF3A
:1018700009810F70F981F07F11F00295007F11232B
:10188000B1F0002361F08D81805E883018F02D81E9
:10189000211109C0802F0E943B150E9484158D8163
:1018A0000E94C70A15C0802F0E944C15F6CF8D816B
:1018B0000E94A30B002361F08D81805E883018F0B8
:1018C0003D81311129C0802F0E9441150E9484154D
:1018D000DD2009F4D3C10E94901480FDCFC1F7012F
:1018E00012820E948A140E94D312C7010E944F0ED6
:1018F0000E948A140F900F900F900F900F90DF911D
:10190000CF911F910F91FF90EF90DF90BF90AF901C
:101910009F908F900C94F512802F0E945215D6CF75
:1019200049814F70B42E5981507F503219F0B294D2
:1019300080EFB8228D81882369F0813029F111234D
:1019400069F1002359F0F701858180FFA8CF8F70DE
:10195000858304C0112361F0011104C08B2D0E9406
:10196000F20BB6CF8B2D0130D1F70E946E15B0CFA0
:10197000011106C00E9471158B2D0E94F90BA8CF92
:10198000013009F4A5CFF6CF112321F0063008F07D
:101990009FCFE4CF053008F09BCFEECF002361F35B
:1019A0008D810E94A30B94CF898186958695837043
:1019B00069F0813009F08CCF8D819981937011117C
:1019C00002C090E080E00E94CA0982CF8D81998197
:1019D0009370111102C090E080E00E94B40978CFAA
:1019E0008D81112329F00E94E8180E94CF1970CF31
:1019F0000E945019FACF8981837009F05FC01111DC
:101A000067CF2D81229526952770220F220F8D8179
:101A10008F7090E0B0E0A0E04C015D01022E04C0A8
:101A2000880C991CAA1CBB1C0A94D2F7FD8160E0AB
:101A300070E0CB01F4FF0FC06FE070E080E090E059
:101A400004C0660F771F881F991F2A95D2F76095EB
:101A500070958095909529812695269523702D83E4
:101A60002230B1F0233019F19B01AC01282939292A
:101A70004A295B2929833A834B835C833D816981B1
:101A80007A818B819C813130B1F00E94601220CF2D
:101A90009B01AC01282939294A295B2929833A83EA
:101AA0004B835C83CA01B9010E948A1211CF0E9444
:101AB0006012C501B4010E9436120ACF8695112327
:101AC00011F089818170882309F402CF2D8122953C
:101AD00026952770220F220F8D818F7090E0B0E045
:101AE000A0E04C015D01022E04C0880C991CAA1CC8
:101AF000BB1C0A94D2F73D8160E070E0CB0134FF5B
:101B00000FC06FE070E080E090E004C0660F771FC8
:101B1000881F991F2A95D2F76095709580959095AA
:101B200049814695469543704D834230B1F043302C
:101B300019F19B01AC01282939294A295B292983FC
:101B40003A834B835C833D8169817A818B819C815F
:101B50003130B1F00E946613BBCE9B01AC01282945
:101B600039294A295B2929833A834B835C83CA013B
:101B7000B9010E949013ACCE0E946613C501B40156
:101B80000E943C13A5CE3D81323F09F447C080F44A
:101B9000303F79F1313FD9F1832F805E8031D0F031
:101BA000112309F456C001117ACE89818F7133C097
:101BB0004D81433FD1F1443F99F7112309F43FC0D0
:101BC00089818F7189830E94D31263E089810E9489
:101BD00094147ECE5D815F705D8389818F71112346
:101BE00021F00E94D3128D81BACE0E94F5128D8110
:101BF000C4CE112341F0053008F06ACE89818F717F
:101C00000E941A1365CE063008F062CEF7CF8981A4
:101C10008F71112339F00E94D3125ACE89818F71AE
:101C20001123C9F30E94F51253CE112329F08981A3
:101C30008F710E94BE124CCE0E94B41249CE81E038
:101C40000E949D14023008F443CE82E00E949D144D
:101C50003FCE0111A5CE89818F71E4CF49814F70AC
:101C60006D81C7010E94AD040E94AF1131CE498140
:101C70004F706D81C7010E94FD052ACE0F900F9015
:101C80000F900F900F90DF91CF911F910F91FF90C8
:101C9000EF90DF90BF90AF909F908F9008950F933B
:101CA0001F93CF93DF93EC018B819C81892B29F0CB
:101CB0008881998189238F3F29F4DF91CF911F91EA
:101CC0000F910895CE010E94C6048823B1F3688164
:101CD00079818A810E9460148C010E94BA130E944B
:101CE0002B12B801CE01DF91CF911F910F910C946F
:101CF000000C0E945A150E946B150E942D150E941F
:101D000084150E94C01A0E94CF1990E080E00E94C2
:101D1000B40990E080E00C94CA090E9449150C9423
:101D2000790E0E945414282F892F82958F70903C31
:101D300080F48A30B0F4843020F4823090F480E073
:101D400008958630E1F781E0203E88F0213FB9F721
:101D50000EC08C3011F08F3091F793FB882780F9FB
:101D6000089581E0203F39F018F4203E40F70895AF
:101D7000243F29F7FCCF0895CF93DF9300D000D004
:101D80000F92CDB7DEB70F900F900F900F900F907E
:101D9000DF91CF910895CF93DF9300D000D000D092
:101DA000CDB7DEB726960FB6F894DEBF0FBECDBF17
:101DB000DF91CF9108951F93CF93DF93E0916D0151
:101DC00016E080916E018E1304C0DF91CF911F91B8
:101DD0000895CE2FD0E01E9FF0011124E159FE4F4F
:101DE0004081518162817381848195810E94CB0EF3
:101DF000FE013196E770E5CF40919F015091A0011F
:101E00006091A1017091A2018091A3019091A40120
:101E10000C94CB0E1F93CF93DF938091A401807F0E
:101E2000C1F48091A1018823A1F080916D01C0913E
:101E30006E0160919F017091A0014091A2015091AB
:101E4000A301D62FD723DA01A095B09516E0C813C9
:101E500004C0DF91CF911F91089590E04115510585
:101E600011F0DF3F31F401968770F1CF2A0F3B1F4D
:101E700017C0189FF001199FF00D1124E159FE4F72
:101E800021812713F0CF20812613EDCF228121114C
:101E9000EACF238134812417350740F3241B350B07
:101EA000283C310500F72091A4012F702061209378
:101EB000A40126E0289FF001299FF00D1124EC5881
:101EC000FE4F80818F70806180838FE991E00E9456
:101ED0004F0EDF91CF911F910C94DB0E9F92AF922A
:101EE000BF92CF92DF92EF92FF920F931F93CF9307
:101EF000DF93CDB7DEB72B970FB6F894DEBF0FBEDA
:101F0000CDBF8C0185E0F801DE01179601900D929E
:101F10008A95E1F7D8014C9111965C911197129630
:101F2000EC9012978091A2019091A301009709F47F
:101F30006BC120919F013091A001632F62236F3FFD
:101F400009F462C11396CD90DC909090A101992084
:101F500009F4F8C0C816D90608F43FC0F601E81B1A
:101F6000F90BCF01FF24F394883C910508F0F12C84
:101F70008FE9A82E81E0B82E8091A401982F907F40
:101F8000FF2009F4B7C0911180C0FE2C35132AC080
:101F9000241328C0E11026C08F7080618093A401B3
:101FA0000E94FC0EC5010E944F0E8091A401D80131
:101FB00015968C938F2D2B960FB6F894DEBF0FBE1F
:101FC000CDBFDF91CF911F910F91FF90EF90DF90E8
:101FD000CF90BF90AF909F900895809590958C0D75
:101FE0009D1DC0CFCD2829F0842F85238F3F09F078
:101FF00019C180E0B82FB170DB2EE0916D01209106
:102000006E0136E080FD1CC0EE20A1F28091A4019B
:1020100081608093A401F12CCDCF8E2F90E03E9F64
:10202000F0011124E159FE4F6181651306C0608102
:10203000641303C062816E11E7CFFC013196E77033
:10204000E213EBCF4F8358878F8198850E945414F9
:10205000292F22952F70903260F0225F2F7022304E
:1020600078F49F7051F0F8019581907F31F4D12C74
:102070000AC09F7011F08823D1F3805E8830B8F3D6
:10208000C8010E944F0EFD2C95CF351306C02413B6
:1020900004C0D801EE2009F47BC04F8358878F819C
:1020A00098850E94910E882309F4B8C0EE2009F4A7
:1020B000B5C08091A401803270F020919F013091D1
:1020C000A0013A8329831B82DD82CC828E83CE01DC
:1020D00001960E944F0E86E0F801AFE9B1E0019051
:1020E0000D928A95E1F70E940A0F0E94FC0EFF24D0
:1020F000F39460CF911113C07C2DDB86CA866E2DC0
:102100008B850E94BC0E8FE991E00E944F0E86E005
:10211000F50111928A95E9F70E94FC0E4BCF351319
:10212000BCCF2413BACFE110B8CFD80115968C9349
:10213000C8010E944F0E86E0F50111928A95E9F7D9
:10214000F92C38CFC816D90688F1B601681B790B6F
:10215000CB01F12C883C910508F047C0FE2CEE2005
:1021600009F45CC0351330C024132EC08091A40143
:1021700080FD21C0982F907FF1F0D80115968C93A7
:102180001597903F39F0982F907F905F8F70892B33
:1021900015968C93C8010E944F0E86E0F801AFE9B6
:1021A000B1E001900D928A95E1F7B6CF80959095B8
:1021B0008C0D9D1DCECF86E0F801AFE9B1E0019016
:1021C0000D928A95E1F7F6CE4F8358878F819885D7
:1021D0000E94910E81117FCF8091A4018160809334
:1021E000A401C8010E944F0EE5CE7C2DDB86CA8675
:1021F0006E2D8B850E94BC0E86E0EFE9F1E0DF01D9
:102200001D928A95E9F788CFEE2041F04F835887D9
:102210008F8198850E94910E81115DCFC8010E9427
:102220004F0E65CF81E08E25E5CE1F93CF93DF93D0
:10223000CDB7DEB72C970FB6F894DEBF0FBECDBF7B
:102240004F83588769877A878B879C87CE0107964B
:102250000E946E0F882369F08A859B85892B39F04F
:102260004F815885842F85238F3F09F071C016E078
:102270005FC086E0FE013796DE01119601900D9257
:102280008A95E1F78A859B85892B89F388859F81CB
:1022900089238F3F61F320916E0130E0C9010196DF
:1022A0008770992740916D014817190671F40E94B3
:1022B0008D0E10926E0110926D0186E0EFE9F1E053
:1022C000DF011D928A95E9F7D2CF96E0929FD00167
:1022D000939FB00D1124A159BE4FFE01319601907C
:1022E0000D929A95E1F780936E010E94DB0EBFCFAD
:1022F000819FC001112481599E4F0E946E0F882337
:10230000E9F0E0916D011E9FF0011124E159FE4FAB
:102310004081518162817381848195810E94CB0EBD
:1023200080916D0190E001968770992780936D01EF
:1023300080916D0190916E018913DACF2C960FB6C2
:10234000F894DEBF0FBECDBFDF91CF911F910895EE
:1023500069857A858B859C850E94CB0E88CFEF920C
:10236000FF920F931F93CF93DF938C01892B89F0FA
:10237000F12CEE24E394E8012196F801849184374E
:1023800009F457C0A0F4823009F43EC048F481300B
:10239000D1F0DF91CF911F910F91FF90EF900895B1
:1023A0009CEF980F9037A8F70E94C70A0AC085379C
:1023B00009F44CC09CE7980F903758F78F770E942C
:1023C000A30B8E0116C00E5F1F4FFE01849190E299
:1023D000980F983060F48770FE2D01C0FF0F8A952A
:1023E000EAF78F2F0E945D150E94841502C00E949B
:1023F000C70A8F2D815008F4BECFEFE9FFE0319777
:10240000F1F700C00000F6CF0E5F1F4FFE01849170
:1024100090E2980F983050F48770FE2D01C0FF0FA6
:102420008A95EAF78F2F0E946315DECF0E94A30BD7
:10243000E0CF0E5F1F4FFE01C491C150D0F28FE973
:102440009FE00197F1F700C00000F7CF0E5F1F4F2C
:10245000FE01F490CECF08956093CC017093CD012E
:102460008093CE019093CF010C94790ECF93DF939C
:1024700000D000D0CDB7DEB769837A838B839C838D
:102480008091CC019091CD01A091CE01B091CF016E
:1024900029813A814B815C81822B932BA42BB52B14
:1024A0008093CC019093CD01A093CE01B093CF0146
:1024B0000F900F900F900F90DF91CF910C94790EA9
:1024C000CF93DF9300D000D0CDB7DEB769837A8396
:1024D0008B839C838091CC019091CD01A091CE0102
:1024E000B091CF0129813A814B815C818223932372
:1024F000A423B5238093CC019093CD01A093CE016A
:10250000B093CF010F900F900F900F90DF91CF916C
:102510000C94790ECF93DF9300D000D0CDB7DEB707
:1025200069837A838B839C838091CC019091CD01C8
:10253000A091CE01B091CF0129813A814B815C817C
:1025400082279327A427B5278093CC019093CD01B0
:10255000A093CE01B093CF010F900F900F900F90EA
:10256000DF91CF910C94790E1092C8011092C9019D
:102570001092CA011092CB010C94790E41E050E008
:1025800060E070E004C0440F551F661F771F8A95F6
:10259000D2F74093C8015093C9016093CA01709368
:1025A000CB010C94790E282F81E090E0A0E0B0E000
:1025B00004C0880F991FAA1FBB1F2A95D2F740910C
:1025C000C8015091C9016091CA017091CB01842B5F
:1025D000952BA62BB72B8093C8019093C901A0938C
:1025E000CA01B093CB010C94790E41E050E060E059
:1025F00070E004C0440F551F661F771F8A95D2F7FD
:1026000040955095609570958091C8019091C90151
:10261000A091CA01B091CB0184239523A623B723AF
:102620008093C8019093C901A093CA01B093CB01D4
:102630000C94790E282F81E090E0A0E0B0E004C077
:10264000880F991FAA1FBB1F2A95D2F74091C80176
:102650005091C9016091CA017091CB0184279527DF
:10266000A627B7278093C8019093C901A093CA01F8
:10267000B093CB010C94790ECF93DF9300D000D0B0
:10268000CDB7DEB769837A838B839C838091C80141
:102690009091C901A091CA01B091CB0129813A81E1
:1026A0004B815C81822B932BA42BB52B8093C8018B
:1026B0009093C901A093CA01B093CB010F900F90E2
:1026C0000F900F90DF91CF910C94790ECF93DF9301
:1026D00000D000D0CDB7DEB769837A838B839C832B
:1026E0008091C8019091C901A091CA01B091CB011C
:1026F00029813A814B815C8182239323A423B523D2
:102700008093C8019093C901A093CA01B093CB01F3
:102710000F900F900F900F90DF91CF910C94790E46
:10272000CF93DF9300D000D0CDB7DEB769837A8333
:102730008B839C838091C8019091C901A091CA01AB
:10274000B091CB0129813A814B815C81822793270B
:10275000A427B5278093C8019093C901A093CA010B
:10276000B093CB010F900F900F900F90DF91CF910E
:102770000C94790E0895E82F2DE0929FE00D11241E
:102780008E2F877041E001C0440F8A95EAF7E695E5
:10279000E695E69585E0E89FF0011124EB55FE4FA4
:1027A00030E020E070E05191DF011197CB01022E63
:1027B00002C0969587950A94E2F7817081958527E6
:1027C000842385278C932F5F3F4F2530310559F7A0
:1027D0000895E82F2DE0929FE00D11249E2F977011
:1027E000E695E695E69585E0E89FF0011124EB5526
:1027F000FE4F50E040E080E0219130E0092E02C021
:10280000369527950A94E2F721703327042E01C0EC
:10281000220F0A94EAF7822B4F5F5F4F4530510534
:1028200059F70895BF92CF92DF92EF92FF920F93E4
:102830001F93CF93DF938C01C090C801D090C90142
:10284000E090CA01F090CB018091CC019091CD0134
:10285000A091CE01B091CF01C82AD92AEA2AFB2A39
:10286000CFE1D0E0BC2ED701C6010C2E04C0B69536
:10287000A795979587950A94D2F780FD0EC021976A
:1028800088F7B12C8B2DDF91CF911F910F91FF9085
:10289000EF90DF90CF90BF900895B8018C2F0E94E9
:1028A0001A06019761F3EECFCF93DF93D82FC92F8C
:1028B0000E9412146D2F7C2FDF91CF910C941A0679
:1028C0001F93CF93DF93162FD72F90916C019923ED
:1028D00039F0862F972FDF91CF911F910C945414CC
:1028E000882391F0862F972F0E941214C82F682FEB
:1028F000812F9D2F0E94BB13612F7D2F8C2FDF9185
:10290000CF911F910C941A06862F972F0E94E913DE
:10291000C82FF2CF8091D001859585958595089532
:102920008091D0018770089598E0899F90011124CB
:10293000622B6093D0010C94D3129091D0018095BA
:1029400089238093D001282F277061F4282F082E27
:10295000000C330B9217130629F085958595859504
:102960000C94F51208959091D001977081E009F4CC
:1029700080E00895909112019923E1F09091260250
:1029800097FF18C0E82FE695E695E695EF3139F107
:102990002091000130910101E20FF32FF11D8770AA
:1029A00021E030E001C0220F8A95EAF78181822B75
:1029B000818308952091000130910101F90132963F
:1029C0009FEF40E05191851751F09F3F19F451114D
:1029D00001C0942F4F5F4E31A9F79F3F09F408952E
:1029E000290F311D97FD3A95F90182830895909141
:1029F0001201992301F19091260297FF1CC0E82F44
:102A0000E695E695E695EF3139F120910001309198
:102A10000101E20FF32FF11D877021E030E0A901E1
:102A200002C0440F551F8A95E2F7CA018095918133
:102A30008923818308952091000130910101F901DA
:102A40003296205E3F4F9191891303C0DF011197A9
:102A50001C92E217F307B9F7089581E090E0E09146
:102A60000001F0910101E80FF91F108201968032F8
:102A70009105A9F708959091F401982B9093F40192
:102A80000895982F90958091F40189238093F40103
:102A900008951092F40108959091F301982B90936A
:102AA000F3010895982F90958091F30189238093E5
:102AB000F30108951092F30108959091F201982B7B
:102AC0009093F2010895982F90958091F2018923B7
:102AD0008093F20108951092F20108958093D1013C
:102AE00008951092D10108952091000130910101C3
:102AF000F9013196205E3F4F80E0919191118F5FF7
:102B0000E217F307D1F70895E0910001F091010178
:102B10008091F4018083E0910001F09101018081B6
:102B20009091F301892B8083E0910001F0910101E4
:102B300080819091F201892B80839091D10199231A
:102B400061F0E0910001F09101018081892B808387
:102B50000E94741581111092D10180910001909111
:102B600001010C949E096DEE7EEF90E080E00E94E2
:102B7000392360E082E090E00E94272360E083E058
:102B800090E00E94272360E084E090E00E942723E9
:102B900060E085E090E00C94272390E080E00E94C4
:102BA00021239C0181E02D3E3E4F09F080E00895F5
:102BB00082E090E00C941923682F82E090E00C945E
:102BC000272383E090E00C941923682F83E090E0A2
:102BD0000C94272384E090E00C941923682F84E060
:102BE00090E00C94272380912C02843039F11092CC
:102BF000F60188E190E020E40FB6F894A895809360
:102C000060000FBE2093600080E00E94FB0583B748
:102C1000817F846083BF83B7816083BF7894889508
:102C200083B78E7F83BF0FB6F894A895809160001C
:102C3000886180936000109260000FBE089508952F
:102C40000895CF930E941F160E94BE080E9420166E
:102C5000C0E08C2F0E948309892B31F4CF5FC430F0
:102C6000C1F780E0CF91089581E0FCCF0E948D0EE6
:102C70000E9492090C94FB051F921FB61F9211240B
:102C80008F939F93AF93BF938091F601811113C0EF
:102C90008091220290912302A0912402B0912502FA
:102CA0004196A11DB11D8093220290932302A0930F
:102CB0002402B0932502BF91AF919F918F911F90F5
:102CC0001FBE1F90189582E084BD93E095BD9AEFDA
:102CD00097BD80936E0008952FB7F89480912202DB
:102CE00090912302A0912402B09125022FBF089554
:102CF000CF92DF92EF92FF929C014FB7F8948091B0
:102D0000220290912302A0912402B09125024FBF8C
:102D10006C017D01EE24FF24A90170E060E0C4167F
:102D2000D506E606F70638F0821B930BFF90EF906E
:102D3000DF90CF9008950197F7CF1F921FB61F9293
:102D400011248F939F93AF93BF9380912202909110
:102D50002302A0912402B09125020196A11DB11D6C
:102D60008093220290932302A0932402B093250221
:102D7000BF91AF919F918F911F901FBE1F9018958B
:102D80000E94B41EF8942FEF87EA91E6215080400C
:102D90009040E1F700C0000087E090EBDC018093F9
:102DA000350290933602A0933702B093380288E13F
:102DB0009CE00FB6F894A895809360000FBE9093A6
:102DC0006000FFCFAF92BF92CF92DF92EF92FF925F
:102DD0000F931F93CF93C0E0AA24A394B12CE82EA5
:102DE000F12C8C2F0E9483096C0110E000E0C501DA
:102DF000002E02C0880F991F0A94E2F78C219D21B2
:102E0000892B99F0602F7C2F80E00E94FE05E81648
:102E1000F90659F481E0CF911F910F91FF90EF9047
:102E2000DF90CF90BF90AF9008950F5F1F4F0D3090
:102E30001105E9F6CF5FC430A1F680E0ECCFCF9367
:102E4000C82F8CE20E94E216882321F08C2FCF91AC
:102E50000C94E21680E0CF910895CF93DF9300D0D9
:102E600000D0CDB7DEB70E94CD15811102C00E94FF
:102E7000B31595E6998308C00E94BE088FE39CE9CC
:102E80000197F1F700C00000A981A150A983A11109
:102E9000F3CF89E20E941F17811110C18AE20E94BC
:102EA0001F1781110E94B31585E00E941F17811121
:102EB0000E94C0160E94D8158093F50187E00E94F9
:102EC0001F17882371F08BE10E941F17882309F4D4
:102ED000D1C09091F501892F8D7F91FF8260809301
:102EE000F5018091F5010E94DC150E94EA1590E041
:102EF000909327028093260280EE0E941F1788235A
:102F000041F090912602892F8E7F90FF81608093FF
:102F1000260289E30E941F17882341F09091260220
:102F2000892F8D7F91FF82608093260282EE0E941E
:102F30001F17882341F090912602892F8B7F92FFE3
:102F400084608093260286EE0E941F17882341F03A
:102F500090912602892F877F93FF886080932602B5
:102F600083EE0E941F17882341F090912602892F3B
:102F70008F7E94FF80618093260285E30E941F1755
:102F8000882341F090912602892F8F7D95FF8062E2
:102F90008093260281E30E941F17882341F09091BD
:102FA0002602892F8F7B96FF80648093260281E121
:102FB0000E941F17882341F090912602892F97FBCA
:102FC00087F9805880932602809126020E94EE1590
:102FD00087E20E941F1789838EE10E941F178823B2
:102FE00019F0B981B260B9838FE10E941F1788235D
:102FF00019F029812460298380E20E941F17882309
:1030000019F039813860398381E20E941F178823C3
:1030100019F049814061498382E20E941F17882389
:1030200019F059815062598383E20E941F17882347
:1030300019F089818064898384E20E941F178823A4
:10304000B1F199819068998389810E94E515398150
:10305000232F30E050E040E029833A834B835C83A8
:10306000CA01B9010F900F900F900F90DF91CF918F
:103070000C942C128EE00E941F17882339F0909137
:10308000F501892F8B7F92FF846029CF80E10E9418
:103090001F179091F501882329F0892F877F93FFCF
:1030A00088601DCF892F8E7F90FF816018CFA98106
:1030B000A111CACF0E94E115282FCBCF0F900F90FE
:1030C0000F900F90DF91CF9108958091F90180FFCB
:1030D00012C06091050185E0689FB00111247595CB
:1030E00067957595679560387105A8F56115710547
:1030F000A1F1862F089581FF09C06091050185E047
:10310000689FB001112475956795EDCF6091050119
:1031100082FD0AC08091FA018823D1F090910401C8
:1031200060910501891728F085E0689FB00111249E
:10313000DACF869FB001112485E0869F9001879F9A
:10314000300D1124692F70E0C9010E94E822CBCF15
:1031500065E070E0CECF8FE7089581E0089580911B
:10316000F90180FF0CC06091030170E075956795CF
:10317000759567956115710549F1862F089581FF51
:1031800006C06091030170E075956795F3CF60917B
:10319000030182FD0BC09091FA019923A1F0609187
:1031A000020180910301961738F0682F70E06038B3
:1031B000710500F38FE70895899FC001112470E025
:1031C0000E94E822F4CF61E070E0D7CF81E008955B
:1031D000803F31F40E94651881958093FD01089528
:1031E000813F19F40E946518F8CF823F31F40E94A4
:1031F000651881958093FC010895833F19F40E941E
:103200006518F8CF893F29F40E94AF188093FE011A
:1032100008958A3F21F40E94AF188195F7CF8B3F24
:1032200031F40E94AF1881958093FF0108958C3F7F
:1032300019F40E94AF18F8CF843F31F48091FB015C
:1032400081608093FB010895853F21F48091FB010B
:103250008260F7CF863F21F48091FB018460F1CF3B
:10326000873F21F48091FB018860EBCF883F21F4F8
:103270008091FB018061E5CF8D3F31F48091F901B0
:1032800081608093F90108958E3F21F48091F901C6
:103290008260F7CF8F3FB9F78091F9018460F1CF59
:1032A0009091FC01803F41F48091FD0187FD1092D7
:1032B000FD01992371F00895813F29F48091FD016A
:1032C0001816ACF3F6CF823F81F497FFF2CF10923D
:1032D000FC018091FD019091FE01892B9091FF01ED
:1032E000892B49F71092FA010895833F19F41916B2
:1032F00074F3DFCF893F39F48091FE011816CCF6C4
:103300001092FE01D6CF8A3F29F48091FE0187FFFB
:10331000D0CFF6CF8B3F39F48091FF0187FFC9CF23
:103320001092FF01C6CF8C3F29F48091FF0118163F
:10333000BCF3BFCF843F31F48091FB018E7F80933B
:10334000FB01B7CF853F21F48091FB018D7FF7CF43
:10335000863F21F48091FB018B7FF1CF873F21F4E1
:103360008091FB01877FEBCF883F21F48091FB01A7
:103370008F7EE5CF8D3F31F48091F9018E7F809370
:10338000F90197CF8E3F21F48091F9018D7FF7CF1E
:103390008F3F09F08ECF8091F9018B7FF0CF8BEFBB
:1033A00091E00E94A9090E946C169093F801809305
:1033B000F70108951F93CF93DF9300D000D000D082
:1033C000CDB7DEB78091F7019091F8010E94781691
:1033D000AC018091FA012091060130E0811106C014
:1033E000209107019AE0299F900111244217530769
:1033F00088F02091FC01A091FD01A9831091FE01AC
:10340000B091FF01BE8321110FC09A2F912B9B2BEE
:1034100009F0B2C026960FB6F894DEBF0FBECDBF3E
:10342000DF91CF911F9108958F3F19F08F5F8093A7
:10343000FA01121624F40E9465188093FC01809111
:10344000FC0187FF05C00E94651881958093FC01EF
:103450002981121624F40E9465188093FD01809141
:10346000FD0187FF05C00E94651881958093FD01CD
:103470008091FC01882309F455C03091FD013D8302
:10348000332309F44FC0282F880F330B440B550BFF
:1034900029833A834B835C83CA01B9010E94EF21DF
:1034A00023E333E343E35FE369837A838B839C8382
:1034B00069817A818B819C810E94532269837A83FE
:1034C0008B839C8369817A818B819C810E94B72147
:1034D0006093FC018D81082E000C990BAA0BBB0B8D
:1034E00089839A83AB83BC83BC01CD010E94EF2109
:1034F00023E333E343E35FE369837A838B839C8332
:1035000069817A818B819C810E94532269837A83AD
:103510008B839C8369817A818B819C810E94B721F6
:103520006093FD01111624F40E94AF188093FE01F0
:103530008091FE0187FF05C00E94AF18819580939E
:10354000FE019E81191624F40E94AF188093FF019A
:103550008091FF0187FF05C00E94AF18819580937D
:10356000FF0126960FB6F894DEBF0FBECDBFDF91E8
:10357000CF911F910C94CF198F3F09F057CF68CF8F
:1035800085E0EBEFF1E0DF011D928A95E9F71092FB
:10359000FA011092F9010895809120020895CF93C5
:1035A000DF9300D00F92CDB7DEB720912C022430EC
:1035B00019F523E029838A839B832093E9008FEF09
:1035C0009091E800815095FD06C095ED9A95F1F730
:1035D00000008111F5CF8091E80085FF0DC050E01B
:1035E00040E063E070E0CE0101960E942C1D8091C6
:1035F000E8008E778093E8000F900F900F90DF9196
:10360000CF910895CF93DF9300D00F92CDB7DEB75F
:103610009C0180912C02843031F582E0898320580E
:1036200031093B832A8383E08093E9008FEF9091F7
:10363000E800815095FD06C095ED9A95F1F70000E0
:103640008111F5CF8091E80085FF0DC050E040E08A
:1036500063E070E0CE0101960E942C1D8091E8008D
:103660008E778093E8000F900F900F90DF91CF91AD
:10367000089520912C022430F1F422E02093E900F7
:103680002FEF3091E800215035FD06C035ED3A9519
:10369000F1F700002111F5CF2091E80025FF0BC0C4
:1036A00050E040E065E070E00E942C1D8091E80051
:1036B0008E778093E8000895CF93DF93D82FC92F9A
:1036C00080912C028430F1F4909112019923E9F059
:1036D0009091260297FF19C08093E9008FEF909197
:1036E000E800815095FD06C095E19A95F1F700003C
:1036F0008111F5CF8091E80050E040E060E270E099
:1037000085FD1AC0DF91CF91089581E08093E90093
:103710008FEF9091E800815095FD06C095ED9A9548
:10372000F1F700008111F5CF8091E80085FFEACF25
:1037300050E040E068E070E08D2F9C2F0E942C1D2F
:103740008091E8008E778093E80080E2ED2FFC2FD7
:10375000A0E0B2E001900D928A95E1F7D3CF80917D
:103760002B02811109C00E94B41E0E94161F809175
:10377000E20084608093E200089510922B02089585
:10378000089508950C94361642E061EC81E00E94A1
:10379000301E42E061EC82E00E94301E42E061ECAB
:1037A00083E00E94301E42E261EC84E00C94301E03
:1037B00080912E02893089F148F4823009F494C056
:1037C000833009F44FC0813041F008958A3009F404
:1037D0007BC08B3009F461C0089580912D02813A3D
:1037E00009F03FC08091E800877F8093E8008091D6
:1037F000310290913202892B61F460E280E092E024
:1038000070E00E947B1D8091E8008B778093E80038
:10381000089560E090E080E0F3CF80912D02813246
:1038200001F58091310290913202009711F00397D7
:10383000C1F48091E800877F8093E8008091E800E0
:1038400082FF0BC08091F100809320028091E800FC
:103850008B778093E8000C94641E80912C02811178
:10386000EDCF089580912D02813AD9F780913102F0
:1038700090913202892BA9F78091E800877F80938D
:10388000E8008091E80080FFFCCF809112018093D6
:10389000F1008091E8008E77DCCF80912D0281329B
:1038A00001F78091310290913202892BD1F68091FB
:1038B000E800877F8093E8000E94641E80912F02B9
:1038C000809312010C948D0E80912D02813249F665
:1038D0008091E800877F8093E8000E94641E8091B9
:1038E000300280932102089580912D02813A09F0DF
:1038F000B8CF8091E800877F8093E8008091E8004E
:1039000080FFFCCF80912102C2CF84B7877F84BF24
:103910000FB6F894A895809160008861809360004C
:10392000109260000FBE80E88093610010926100E9
:103930000E94E1090E94B41E0E94161F8091E200BD
:1039400084608093E20078940E949C210E94E309A5
:1039500088E091E00E948D0980912C02853019F059
:103960000E94E909F9CF0E94F31580912A02882369
:1039700099F30E942116882379F30E94161DECCF3B
:103980009C01DA01892F992783309105C1F068F4F1
:103990008130910509F445C0029761F48DE690E00D
:1039A00028E437E02D933C93089581329105E1F0AE
:1039B000829739F190E080E030E020E0F3CFC90158
:1039C0009927213059F08230910559F0E4E4F7E06D
:1039D000892B81F7849190E09F01E4CFECE2F7E03E
:1039E000F9CFE8E1F7E0F6CF643020F7E62FF0E01A
:1039F000EE0FFF1FE05DFE4F2081318189E090E0F6
:103A0000D1CF6430B8F670E0FB01EE0FFF1FE85D28
:103A1000FE4F208131816C5D7E4FFB01808190E003
:103A2000C1CF82E190E025EB37E0BCCF84E189BDD6
:103A300086E189BD09B400FEFDCF8091D8008F7D5D
:103A40008093D8008091E00082608093E0008091B4
:103A5000E00081FDFCCF0895AF92BF92CF92DF923C
:103A6000FF920F931F93CF93DF936C01EB018A01B9
:103A70000E94831EF82E811123C00115110539F013
:103A8000F80180819181C81BD90BC80ED91EB12CB9
:103A9000A12C2097A9F08091E80085FD22C080919B
:103AA000E8008E778093E80001151105A1F0F80178
:103AB00080819181A80EB91EB182A08285E0F82E86
:103AC0008F2DDF91CF911F910F91FF90DF90CF90BD
:103AD000BF90AF9008950E94831E8823D1F2F82EE4
:103AE000EFCFF60181916F018093F1002197FFEFF5
:103AF000AF1ABF0ACECFFC01CB0120913302309127
:103B000034022617370790F0009729F42091E80037
:103B10002E772093E80040E0009751F4411108C04F
:103B20008091E80082FF31C080E00895C901F3CFA1
:103B300020912C022223A9F12530A9F12091E8003F
:103B400023FD2DC02091E80022FDEACF2091E8005E
:103B500020FFE2CF2091F2003091F300009719F09E
:103B60002830310558F041E02830310509F040E0B7
:103B70002091E8002E772093E800CECF419140932A
:103B8000F10001972F5F3F4FE9CF80912C028823EE
:103B900041F0853041F08091E80083FFC1CF81E0A2
:103BA000089582E0089583E00895FC01CB012091FF
:103BB0003302309134022617370790F0009729F42A
:103BC0002091E8002E772093E80040E0009751F420
:103BD000411108C08091E80082FF32C080E0089562
:103BE000C901F3CF20912C022223B1F12530B1F18C
:103BF0002091E80023FD2EC02091E80022FDEACFAD
:103C00002091E80020FFE2CF2091F2003091F300F4
:103C1000009719F02830310558F041E0283031057F
:103C200009F040E02091E8002E772093E800CECF05
:103C300044914093F100319601972F5F3F4FE8CFB9
:103C400080912C02882341F0853041F08091E8007A
:103C500083FFC0CF81E0089582E0089583E0089556
:103C6000982F973028F08F708093E90081E00895B5
:103C70009093E900242F762F50E0981731F070913F
:103C8000EC002091ED005091F00021FD02C09F5FFB
:103C9000E8CF3091EB003E7F3093EB003091ED00A8
:103CA0003D7F3093ED003091EB0031603093EB00BD
:103CB0007093EC002093ED005093F0002091EE0003
:103CC00027FDE5CF80E0089580912D0287FF13C086
:103CD0008091E80082FF06C08091E8008B77809396
:103CE000E80004C080912C028111F2CF08958091E8
:103CF0002C028823D9F38091E80080FFF8CF8091CF
:103D0000E8008E77ECCF2091E4003091E50095E655
:103D1000A9012091EC00822F817020FF06C08091C4
:103D2000E80080FF06C080E008952091E80022FDB1
:103D30001AC080912C02882389F0853089F0809107
:103D4000EB0085FD0FC02091E4003091E5004217A3
:103D50005307F9F29150E1F684E0089582E0089566
:103D600083E0089581E008950E94251F0E942D1F81
:103D7000E0EEF0E0808181608083E8EDF0E080811A
:103D80008F77808319BCA7EDB0E08C918E7F8C93E8
:103D900080818F7E808310922B0208950F931F9352
:103DA000CF93DF930E94251F0E942D1FC8EDD0E006
:103DB00088818F77888388818068888388818F7DD8
:103DC0008883E7EDF0E080818068808319BC1092E1
:103DD0002C021092280210922A021092290200EE60
:103DE00010E0F80180818B7F8083888181608883E7
:103DF00042E060E080E00E94301EE1EEF0E0808171
:103E00008E7F8083E2EEF0E080818160808380811C
:103E100088608083F80180818E7F808388818061C3
:103E20008883DF91CF911F910F910895E8EDF0E025
:103E300080818F7E8083E7EDF0E0808181608083E8
:103E400081E080932B020C94CE1EE8EDF0E080819F
:103E50008C7F80831092E20008951092DA00109215
:103E6000E10008951F920F920FB60F9211240BB626
:103E70000F922F933F934F935F936F937F938F9303
:103E80009F93AF93BF93EF93FF938091E10082FFE5
:103E90000BC08091E20082FF07C08091E1008B7F20
:103EA0008093E1000E949B218091DA0080FF19C07D
:103EB0008091D80080FF15C08091DA008E7F8093BA
:103EC000DA008091D90080FF96C084E189BD86E147
:103ED00089BD09B400FEFDCF81E080932C020E94D1
:103EE000AF1B8091E10080FF19C08091E20080FF4C
:103EF00015C08091E2008E7F8093E2008091E20005
:103F000080618093E2008091D80080628093D80025
:103F100019BC85E080932C020E94C11B8091E100B6
:103F200084FF29C08091E20084FF25C084E189BD1F
:103F300086E189BD09B400FEFDCF8091D8008F7D58
:103F40008093D8008091E1008F7E8093E100809182
:103F5000E2008F7E8093E2008091E2008160809396
:103F6000E20080912802882309F44BC084E080930A
:103F70002C020E94C21B8091E10083FF29C0809126
:103F8000E20083FF25C08091E100877F8093E100FC
:103F900082E080932C02109228028091E1008E7FB3
:103FA0008093E1008091E2008E7F8093E200809117
:103FB000E20080618093E20042E060E080E00E94E5
:103FC000301E8091F00088608093F0000E94C01B3A
:103FD000FF91EF91BF91AF919F918F917F916F91E1
:103FE0005F914F913F912F910F900BBE0F900FBE9D
:103FF0000F901F90189519BC10922C020E94BD1BA7
:1040000070CF8091E30087FD02C081E0B0CF83E0F4
:10401000AECF1F920F920FB60F9211240BB60F92D4
:104020002F933F934F935F936F937F938F939F93C0
:10403000AF93BF93CF93DF93EF93FF93D091E900BA
:10404000DF708091EC00C82FC17080FDC0E8109235
:10405000E9008091F000877F8093F00078940E94BF
:1040600051201092E9008091F00088608093F00068
:10407000CD2BCF70C093E900FF91EF91DF91CF91ED
:10408000BF91AF919F918F917F916F915F914F9170
:104090003F912F910F900BBE0F900FBE0F901F906E
:1040A00018951F93CF93DF93CDB7DEB7AA970FB6BE
:1040B000F894DEBF0FBECDBF8DE292E0FC01019609
:1040C0002091F100208322E085339207B9F70E9406
:1040D000D81B8091E80083FF16C180912D0290913A
:1040E0002E029A3008F00FC1E92FF0E0ED58FC4D98
:1040F0000C94FC22803881F0823809F004C1809150
:1041000031028F708093E9008091EB0085FB882756
:1041100080F91092E90006C08091290290912A024C
:10412000911182609091E800977F9093E8008093CE
:10413000F1001092F1008091E8008E77E0C08823B2
:1041400009F4CEC0823009F0DEC080912F028111C7
:10415000D1C0809131028F7009F4D5C08093E900FD
:104160002091EB0020FFC6C0933031F48091EB002A
:1041700080628093EB00BEC09091EB0090619093C1
:10418000EB0021E030E001C0220F8A95EAF720938E
:10419000EA001092EA008091EB008860EACF81117A
:1041A000B2C010912F021F778091E3008078812B9D
:1041B0008093E3008091E800877F8093E8000E946D
:1041C000641E8091E80080FFFCCF8091E30080684E
:1041D0008093E30082E0111183E080932C0293C06E
:1041E0008058823008F08FC080912F029091300269
:1041F0008C3D23E09207A1F583E08A838AE28983DC
:104200004FB7F894DE01139620E03EE051E2E32F31
:10421000F0E050935700E49120FF03C0E295EF7067
:104220003F5FEF708E2F90E0EA30C0F0C7968D931D
:104230009D932F5F243159F74FBF8091E800877F0E
:104240008093E8006AE270E0CE0101960E947B1D37
:104250008091E8008B778093E80055C0C096E7CF47
:10426000AE014F5F5F4F609131020E94C01CBC01E4
:10427000892B09F448C08091E800877F8093E8008B
:1042800089819A810E94D51DE3CF8038E1F5809124
:10429000E800877F8093E800809128028093F100F6
:1042A0004ACF811130C090912F02923060F58091F9
:1042B000E800877F8093E800909328020E94641EA4
:1042C00080912802882311F084E005C08091E300EA
:1042D00087FDFACF81E080932C020E94C41B13C09B
:1042E00080912F02813079F481E0933009F080E0F1
:1042F00080932A021092E9008091E800877F8093E2
:10430000E8000E94641E8091E80083FF0AC080914B
:10431000E800877F8093E8008091EB0080628093C3
:10432000EB00AA960FB6F894DEBF0FBECDBFDF91AB
:10433000CF911F9108950895CF9380912C028823E7
:10434000A1F0C091E900CF709091EC00892F8170AD
:1043500090FD80E8C82B1092E9008091E80083FD71
:104360000E945120CF70C093E900CF9108950E9420
:10437000BE216894B1110C944D2208950E943222FE
:1043800088F09F5798F0B92F9927B751B0F0E1F016
:10439000660F771F881F991F1AF0BA95C9F714C0C6
:1043A000B13091F00E944C22B1E008950C944C225F
:1043B000672F782F8827B85F39F0B93FCCF38695FF
:1043C00077956795B395D9F73EF49095809570955C
:1043D00061957F4F8F4F9F4F0895E89409C097FBD9
:1043E0003EF490958095709561957F4F8F4F9F4FCC
:1043F0009923A9F0F92F96E9BB279395F695879510
:1044000077956795B795F111F8CFFAF4BB0F11F4D2
:1044100060FF1BC06F5F7F4F8F4F9F4F16C0882379
:1044200011F096E911C0772321F09EE8872F762FAF
:1044300005C0662371F096E8862F70E060E02AF0F0
:104440009A95660F771F881FDAF7880F96958795DC
:1044500097F9089557FD9058440F551F59F05F3F45
:1044600071F04795880F97FB991F61F09F3F79F096
:1044700087950895121613061406551FF2CF469518
:10448000F1DF08C0161617061806991FF1CF86959A
:104490007105610508940895E894BB27662777277E
:1044A000CB0197F908950E9466220C94D7220E94AE
:1044B000C92238F00E94D02220F0952311F00C94EC
:1044C000C0220C94C62211240C944D220E942A2250
:1044D00070F3959FC1F3950F50E0551F629FF00157
:1044E000729FBB27F00DB11D639FAA27F00DB11D70
:1044F000AA1F649F6627B00DA11D661F829F2227F9
:10450000B00DA11D621F739FB00DA11D621F839F7F
:10451000A00D611D221F749F3327A00D611D231F55
:10452000849F600D211D822F762F6A2F11249F57A3
:1045300050409AF0F1F088234AF0EE0FFF1FBB1FA6
:10454000661F771F881F91505040A9F79E3F510565
:1045500080F00C94C0220C944D225F3FE4F3983E0F
:10456000D4F3869577956795B795F795E7959F5F0F
:10457000C1F7FE2B880F911D9695879597F90895A1
:1045800097F99F6780E870E060E008959FEF80EC06
:10459000089500240A9416161706180609060895A9
:1045A00000240A9412161306140605060895092E0F
:1045B0000394000C11F4882352F0BB0F40F4BF2B7E
:1045C00011F460FF04C06F5F7F4F8F4F9F4F0895BE
:1045D00097FB072E16F4009407D077FD09D00E94B0
:1045E000052307FC05D03EF4909581959F4F0895D3
:1045F000709561957F4F0895EE0FFF1F0024001CFA
:104600000BBE0790F691E02D0994AA1BBB1B51E14C
:1046100007C0AA1FBB1FA617B70710F0A61BB70B32
:10462000881F991F5A95A9F780959095BC01CD01D7
:104630000895F999FECF92BD81BDF89A992780B56A
:104640000895A8E1B0E042E050E00C944123262F09
:10465000F999FECF92BD81BDF89A019700B4021678
:1046600039F01FBA20BD0FB6F894FA9AF99A0FBE26
:1046700008950196272F0E9428230C942723DC01FC
:10468000CB01FC01F999FECF06C0F2BDE1BDF89A5D
:10469000319600B40D9241505040B8F70895F89407
:1046A000FFCF6605720576057A057E0582058605CB
:1046B0008A058E05920596059A059E05A205A60512
:1046C000AA05AE05B205380C380C900C900CD40C31
:1046D000F00C680C680CFB0C680CC30DC30D2E0E9F
:1046E000680C680C370E7A209F2083219F2083213D
:0A46F000CF20F02083214521512145
:1046FA00D2012808140A321ECC1A5C1B391B021B71
:10470A00CF1A01909192939495676665F5626160FC
:10471A00323436F0404D3639830836080008C70768
:08472A005A0773078C07A5076D
:00000001FF
